{"abi":[{"type":"constructor","inputs":[],"stateMutability":"nonpayable"},{"type":"function","name":"UPGRADE_INTERFACE_VERSION","inputs":[],"outputs":[{"name":"","type":"string","internalType":"string"}],"stateMutability":"view"},{"type":"function","name":"addPermissionedHypernode","inputs":[{"name":"hypernode","type":"address","internalType":"address"}],"outputs":[],"stateMutability":"nonpayable"},{"type":"function","name":"bpScale","inputs":[],"outputs":[{"name":"","type":"uint256","internalType":"uint256"}],"stateMutability":"view"},{"type":"function","name":"buildBlockProofPublicInputs","inputs":[{"name":"safeBlockHeight","type":"uint32","internalType":"uint32"},{"name":"proposedBlockHeight","type":"uint64","internalType":"uint64"},{"name":"confirmationBlockHeight","type":"uint64","internalType":"uint64"},{"name":"blockHashes","type":"bytes32[]","internalType":"bytes32[]"},{"name":"blockChainworks","type":"uint256[]","internalType":"uint256[]"}],"outputs":[{"name":"","type":"tuple","internalType":"struct RiftExchange.ProofPublicInputs","components":[{"name":"natural_txid","type":"bytes32","internalType":"bytes32"},{"name":"merkle_root","type":"bytes32","internalType":"bytes32"},{"name":"lp_reservation_hash","type":"bytes32","internalType":"bytes32"},{"name":"order_nonce","type":"bytes32","internalType":"bytes32"},{"name":"lp_count","type":"uint64","internalType":"uint64"},{"name":"retarget_block_hash","type":"bytes32","internalType":"bytes32"},{"name":"safe_block_height","type":"uint64","internalType":"uint64"},{"name":"safe_block_height_delta","type":"uint64","internalType":"uint64"},{"name":"confirmation_block_height_delta","type":"uint64","internalType":"uint64"},{"name":"block_hashes","type":"bytes32[]","internalType":"bytes32[]"},{"name":"block_chainworks","type":"uint256[]","internalType":"uint256[]"},{"name":"is_transaction_proof","type":"bool","internalType":"bool"}]}],"stateMutability":"view"},{"type":"function","name":"buildPublicInputs","inputs":[{"name":"swapReservationIndex","type":"uint256","internalType":"uint256"},{"name":"bitcoinTxId","type":"bytes32","internalType":"bytes32"},{"name":"merkleRoot","type":"bytes32","internalType":"bytes32"},{"name":"safeBlockHeight","type":"uint32","internalType":"uint32"},{"name":"proposedBlockHeight","type":"uint64","internalType":"uint64"},{"name":"confirmationBlockHeight","type":"uint64","internalType":"uint64"},{"name":"blockHashes","type":"bytes32[]","internalType":"bytes32[]"},{"name":"blockChainworks","type":"uint256[]","internalType":"uint256[]"},{"name":"isTransactionProof","type":"bool","internalType":"bool"}],"outputs":[{"name":"","type":"tuple","internalType":"struct RiftExchange.ProofPublicInputs","components":[{"name":"natural_txid","type":"bytes32","internalType":"bytes32"},{"name":"merkle_root","type":"bytes32","internalType":"bytes32"},{"name":"lp_reservation_hash","type":"bytes32","internalType":"bytes32"},{"name":"order_nonce","type":"bytes32","internalType":"bytes32"},{"name":"lp_count","type":"uint64","internalType":"uint64"},{"name":"retarget_block_hash","type":"bytes32","internalType":"bytes32"},{"name":"safe_block_height","type":"uint64","internalType":"uint64"},{"name":"safe_block_height_delta","type":"uint64","internalType":"uint64"},{"name":"confirmation_block_height_delta","type":"uint64","internalType":"uint64"},{"name":"block_hashes","type":"bytes32[]","internalType":"bytes32[]"},{"name":"block_chainworks","type":"uint256[]","internalType":"uint256[]"},{"name":"is_transaction_proof","type":"bool","internalType":"bool"}]}],"stateMutability":"view"},{"type":"function","name":"calculateRetargetHeight","inputs":[{"name":"blockHeight","type":"uint256","internalType":"uint256"}],"outputs":[{"name":"","type":"uint256","internalType":"uint256"}],"stateMutability":"pure"},{"type":"function","name":"challengePeriod","inputs":[],"outputs":[{"name":"","type":"uint32","internalType":"uint32"}],"stateMutability":"view"},{"type":"function","name":"circuitVerificationKey","inputs":[],"outputs":[{"name":"","type":"bytes32","internalType":"bytes32"}],"stateMutability":"view"},{"type":"function","name":"currentHeight","inputs":[],"outputs":[{"name":"","type":"uint256","internalType":"uint256"}],"stateMutability":"view"},{"type":"function","name":"depositLiquidity","inputs":[{"name":"depositAmount","type":"uint256","internalType":"uint256"},{"name":"exchangeRate","type":"uint64","internalType":"uint64"},{"name":"btcPayoutLockingScript","type":"bytes22","internalType":"bytes22"}],"outputs":[],"stateMutability":"nonpayable"},{"type":"function","name":"depositToken","inputs":[],"outputs":[{"name":"","type":"address","internalType":"contract IERC20"}],"stateMutability":"view"},{"type":"function","name":"depositVaults","inputs":[{"name":"","type":"uint256","internalType":"uint256"}],"outputs":[{"name":"owner","type":"address","internalType":"address"},{"name":"depositTimestamp","type":"uint64","internalType":"uint64"},{"name":"initialBalance","type":"uint256","internalType":"uint256"},{"name":"unreservedBalance","type":"uint256","internalType":"uint256"},{"name":"withdrawnAmount","type":"uint256","internalType":"uint256"},{"name":"exchangeRate","type":"uint64","internalType":"uint64"},{"name":"btcPayoutLockingScript","type":"bytes22","internalType":"bytes22"}],"stateMutability":"view"},{"type":"function","name":"getAreDepositsPaused","inputs":[],"outputs":[{"name":"","type":"bool","internalType":"bool"}],"stateMutability":"view"},{"type":"function","name":"getBlockHash","inputs":[{"name":"blockHeight","type":"uint256","internalType":"uint256"}],"outputs":[{"name":"","type":"bytes32","internalType":"bytes32"}],"stateMutability":"view"},{"type":"function","name":"getChainwork","inputs":[{"name":"blockHeight","type":"uint256","internalType":"uint256"}],"outputs":[{"name":"","type":"uint256","internalType":"uint256"}],"stateMutability":"view"},{"type":"function","name":"getDepositVault","inputs":[{"name":"depositIndex","type":"uint256","internalType":"uint256"}],"outputs":[{"name":"","type":"tuple","internalType":"struct RiftExchange.DepositVault","components":[{"name":"owner","type":"address","internalType":"address"},{"name":"depositTimestamp","type":"uint64","internalType":"uint64"},{"name":"initialBalance","type":"uint256","internalType":"uint256"},{"name":"unreservedBalance","type":"uint256","internalType":"uint256"},{"name":"withdrawnAmount","type":"uint256","internalType":"uint256"},{"name":"exchangeRate","type":"uint64","internalType":"uint64"},{"name":"btcPayoutLockingScript","type":"bytes22","internalType":"bytes22"}]}],"stateMutability":"view"},{"type":"function","name":"getDepositVaultUnreservedBalance","inputs":[{"name":"depositIndex","type":"uint256","internalType":"uint256"}],"outputs":[{"name":"","type":"uint256","internalType":"uint256"}],"stateMutability":"view"},{"type":"function","name":"getDepositVaultsLength","inputs":[],"outputs":[{"name":"","type":"uint256","internalType":"uint256"}],"stateMutability":"view"},{"type":"function","name":"getLiquidityProvider","inputs":[{"name":"lpAddress","type":"address","internalType":"address"}],"outputs":[{"name":"","type":"tuple","internalType":"struct RiftExchange.LiquidityProvider","components":[{"name":"depositVaultIndexes","type":"uint256[]","internalType":"uint256[]"}]}],"stateMutability":"view"},{"type":"function","name":"getReservation","inputs":[{"name":"reservationIndex","type":"uint256","internalType":"uint256"}],"outputs":[{"name":"","type":"tuple","internalType":"struct RiftExchange.SwapReservation","components":[{"name":"owner","type":"address","internalType":"address"},{"name":"confirmationBlockHeight","type":"uint32","internalType":"uint32"},{"name":"reservationTimestamp","type":"uint64","internalType":"uint64"},{"name":"liquidityUnlockedTimestamp","type":"uint64","internalType":"uint64"},{"name":"state","type":"uint8","internalType":"enum RiftExchange.ReservationState"},{"name":"ethPayoutAddress","type":"address","internalType":"address"},{"name":"lpReservationHash","type":"bytes32","internalType":"bytes32"},{"name":"nonce","type":"bytes32","internalType":"bytes32"},{"name":"totalSatsInputIncludingProxyFee","type":"uint256","internalType":"uint256"},{"name":"totalSwapOutputAmount","type":"uint256","internalType":"uint256"},{"name":"proposedBlockHeight","type":"uint64","internalType":"uint64"},{"name":"proposedBlockHash","type":"bytes32","internalType":"bytes32"},{"name":"vaultIndexes","type":"uint256[]","internalType":"uint256[]"},{"name":"amountsToReserve","type":"uint192[]","internalType":"uint192[]"},{"name":"expectedSatsOutput","type":"uint64[]","internalType":"uint64[]"}]}],"stateMutability":"view"},{"type":"function","name":"getReservationLength","inputs":[],"outputs":[{"name":"","type":"uint256","internalType":"uint256"}],"stateMutability":"view"},{"type":"function","name":"initialize","inputs":[{"name":"initialCheckpointHeight","type":"uint256","internalType":"uint256"},{"name":"initialBlockHash","type":"bytes32","internalType":"bytes32"},{"name":"initialRetargetBlockHash","type":"bytes32","internalType":"bytes32"},{"name":"initialChainwork","type":"uint256","internalType":"uint256"},{"name":"verifierContractAddress","type":"address","internalType":"address"},{"name":"depositTokenAddress","type":"address","internalType":"address"},{"name":"initialFeeRouterAddress","type":"address","internalType":"address payable"},{"name":"initialOwner","type":"address","internalType":"address"},{"name":"verificationKeyHash","type":"bytes32","internalType":"bytes32"},{"name":"initialPermissionedHypernodes","type":"address[]","internalType":"address[]"}],"outputs":[],"stateMutability":"nonpayable"},{"type":"function","name":"isDepositNewLiquidityPaused","inputs":[],"outputs":[{"name":"","type":"bool","internalType":"bool"}],"stateMutability":"view"},{"type":"function","name":"minProtocolFee","inputs":[],"outputs":[{"name":"","type":"uint32","internalType":"uint32"}],"stateMutability":"view"},{"type":"function","name":"owner","inputs":[],"outputs":[{"name":"","type":"address","internalType":"address"}],"stateMutability":"view"},{"type":"function","name":"permissionedHypernodes","inputs":[{"name":"","type":"address","internalType":"address"}],"outputs":[{"name":"","type":"bool","internalType":"bool"}],"stateMutability":"view"},{"type":"function","name":"protocolFeeBP","inputs":[],"outputs":[{"name":"","type":"uint8","internalType":"uint8"}],"stateMutability":"view"},{"type":"function","name":"proveBlocks","inputs":[{"name":"safeBlockHeight","type":"uint32","internalType":"uint32"},{"name":"proposedBlockHeight","type":"uint64","internalType":"uint64"},{"name":"confirmationBlockHeight","type":"uint64","internalType":"uint64"},{"name":"blockHashes","type":"bytes32[]","internalType":"bytes32[]"},{"name":"blockChainworks","type":"uint256[]","internalType":"uint256[]"},{"name":"proof","type":"bytes","internalType":"bytes"}],"outputs":[],"stateMutability":"nonpayable"},{"type":"function","name":"proxiableUUID","inputs":[],"outputs":[{"name":"","type":"bytes32","internalType":"bytes32"}],"stateMutability":"view"},{"type":"function","name":"releaseLiquidity","inputs":[{"name":"swapReservationIndex","type":"uint256","internalType":"uint256"}],"outputs":[],"stateMutability":"nonpayable"},{"type":"function","name":"removePermissionedHypernode","inputs":[{"name":"hypernode","type":"address","internalType":"address"}],"outputs":[],"stateMutability":"nonpayable"},{"type":"function","name":"renounceOwnership","inputs":[],"outputs":[],"stateMutability":"nonpayable"},{"type":"function","name":"reservationLockupPeriod","inputs":[],"outputs":[{"name":"","type":"uint32","internalType":"uint32"}],"stateMutability":"view"},{"type":"function","name":"reserveLiquidity","inputs":[{"name":"reservationOwner","type":"address","internalType":"address"},{"name":"vaultIndexesToReserve","type":"uint256[]","internalType":"uint256[]"},{"name":"amountsToReserve","type":"uint192[]","internalType":"uint192[]"},{"name":"ethPayoutAddress","type":"address","internalType":"address"},{"name":"totalSatsInputIncludingProxyFee","type":"uint256","internalType":"uint256"},{"name":"expiredSwapReservationIndexes","type":"uint256[]","internalType":"uint256[]"}],"outputs":[],"stateMutability":"nonpayable"},{"type":"function","name":"scale","inputs":[],"outputs":[{"name":"","type":"uint256","internalType":"uint256"}],"stateMutability":"view"},{"type":"function","name":"submitSwapProof","inputs":[{"name":"swapReservationIndex","type":"uint256","internalType":"uint256"},{"name":"bitcoinTxId","type":"bytes32","internalType":"bytes32"},{"name":"merkleRoot","type":"bytes32","internalType":"bytes32"},{"name":"safeBlockHeight","type":"uint32","internalType":"uint32"},{"name":"proposedBlockHeight","type":"uint64","internalType":"uint64"},{"name":"confirmationBlockHeight","type":"uint64","internalType":"uint64"},{"name":"blockHashes","type":"bytes32[]","internalType":"bytes32[]"},{"name":"blockChainworks","type":"uint256[]","internalType":"uint256[]"},{"name":"proof","type":"bytes","internalType":"bytes"}],"outputs":[],"stateMutability":"nonpayable"},{"type":"function","name":"swapReservations","inputs":[{"name":"","type":"uint256","internalType":"uint256"}],"outputs":[{"name":"owner","type":"address","internalType":"address"},{"name":"confirmationBlockHeight","type":"uint32","internalType":"uint32"},{"name":"reservationTimestamp","type":"uint64","internalType":"uint64"},{"name":"liquidityUnlockedTimestamp","type":"uint64","internalType":"uint64"},{"name":"state","type":"uint8","internalType":"enum RiftExchange.ReservationState"},{"name":"ethPayoutAddress","type":"address","internalType":"address"},{"name":"lpReservationHash","type":"bytes32","internalType":"bytes32"},{"name":"nonce","type":"bytes32","internalType":"bytes32"},{"name":"totalSatsInputIncludingProxyFee","type":"uint256","internalType":"uint256"},{"name":"totalSwapOutputAmount","type":"uint256","internalType":"uint256"},{"name":"proposedBlockHeight","type":"uint64","internalType":"uint64"},{"name":"proposedBlockHash","type":"bytes32","internalType":"bytes32"}],"stateMutability":"view"},{"type":"function","name":"tokenDecimals","inputs":[],"outputs":[{"name":"","type":"uint8","internalType":"uint8"}],"stateMutability":"view"},{"type":"function","name":"transferOwnership","inputs":[{"name":"newOwner","type":"address","internalType":"address"}],"outputs":[],"stateMutability":"nonpayable"},{"type":"function","name":"updateCircuitVerificationKey","inputs":[{"name":"newVerificationKey","type":"bytes32","internalType":"bytes32"}],"outputs":[],"stateMutability":"nonpayable"},{"type":"function","name":"updateExchangeRate","inputs":[{"name":"globalVaultIndex","type":"uint256","internalType":"uint256"},{"name":"newExchangeRate","type":"uint64","internalType":"uint64"},{"name":"expiredSwapReservationIndexes","type":"uint256[]","internalType":"uint256[]"}],"outputs":[],"stateMutability":"nonpayable"},{"type":"function","name":"updateFeeRouter","inputs":[{"name":"newProtocolAddress","type":"address","internalType":"address payable"}],"outputs":[],"stateMutability":"nonpayable"},{"type":"function","name":"updateNewLiquidityDepositsPaused","inputs":[{"name":"newPauseState","type":"bool","internalType":"bool"}],"outputs":[],"stateMutability":"nonpayable"},{"type":"function","name":"updateProtocolFee","inputs":[{"name":"newProtocolFeeBP","type":"uint8","internalType":"uint8"}],"outputs":[],"stateMutability":"nonpayable"},{"type":"function","name":"updateVerifierContract","inputs":[{"name":"newVerifierContractAddress","type":"address","internalType":"address"}],"outputs":[],"stateMutability":"nonpayable"},{"type":"function","name":"upgradeToAndCall","inputs":[{"name":"newImplementation","type":"address","internalType":"address"},{"name":"data","type":"bytes","internalType":"bytes"}],"outputs":[],"stateMutability":"payable"},{"type":"function","name":"validateBlockExists","inputs":[{"name":"blockHeight","type":"uint256","internalType":"uint256"}],"outputs":[],"stateMutability":"view"},{"type":"function","name":"verifierContract","inputs":[],"outputs":[{"name":"","type":"address","internalType":"contract ISP1Verifier"}],"stateMutability":"view"},{"type":"function","name":"withdrawLiquidity","inputs":[{"name":"globalVaultIndex","type":"uint256","internalType":"uint256"},{"name":"amountToWithdraw","type":"uint192","internalType":"uint192"},{"name":"expiredSwapReservationIndexes","type":"uint256[]","internalType":"uint256[]"}],"outputs":[],"stateMutability":"nonpayable"},{"type":"event","name":"BitcoinChainSynced","inputs":[{"name":"oldBlockHeight","type":"uint256","indexed":false,"internalType":"uint256"},{"name":"newBlockHeight","type":"uint256","indexed":false,"internalType":"uint256"}],"anonymous":false},{"type":"event","name":"BlocksAdded","inputs":[{"name":"startBlockHeight","type":"uint256","indexed":false,"internalType":"uint256"},{"name":"count","type":"uint256","indexed":false,"internalType":"uint256"}],"anonymous":false},{"type":"event","name":"ExchangeRateUpdated","inputs":[{"name":"globalVaultIndex","type":"uint256","indexed":true,"internalType":"uint256"},{"name":"newExchangeRate","type":"uint64","indexed":false,"internalType":"uint64"},{"name":"unreservedBalance","type":"uint256","indexed":false,"internalType":"uint256"}],"anonymous":false},{"type":"event","name":"Initialized","inputs":[{"name":"version","type":"uint64","indexed":false,"internalType":"uint64"}],"anonymous":false},{"type":"event","name":"LiquidityDeposited","inputs":[{"name":"depositor","type":"address","indexed":true,"internalType":"address"},{"name":"depositVaultIndex","type":"uint256","indexed":false,"internalType":"uint256"},{"name":"amount","type":"uint256","indexed":false,"internalType":"uint256"},{"name":"exchangeRate","type":"uint64","indexed":false,"internalType":"uint64"}],"anonymous":false},{"type":"event","name":"LiquidityReserved","inputs":[{"name":"reserver","type":"address","indexed":true,"internalType":"address"},{"name":"swapReservationIndex","type":"uint256","indexed":false,"internalType":"uint256"},{"name":"orderNonce","type":"bytes32","indexed":false,"internalType":"bytes32"}],"anonymous":false},{"type":"event","name":"LiquidityWithdrawn","inputs":[{"name":"globalVaultIndex","type":"uint256","indexed":true,"internalType":"uint256"},{"name":"amountWithdrawn","type":"uint192","indexed":false,"internalType":"uint192"},{"name":"remainingBalance","type":"uint256","indexed":false,"internalType":"uint256"}],"anonymous":false},{"type":"event","name":"OwnershipTransferred","inputs":[{"name":"previousOwner","type":"address","indexed":true,"internalType":"address"},{"name":"newOwner","type":"address","indexed":true,"internalType":"address"}],"anonymous":false},{"type":"event","name":"ProofSubmitted","inputs":[{"name":"prover","type":"address","indexed":true,"internalType":"address"},{"name":"swapReservationIndex","type":"uint256","indexed":false,"internalType":"uint256"},{"name":"orderNonce","type":"bytes32","indexed":false,"internalType":"bytes32"}],"anonymous":false},{"type":"event","name":"ProtocolFeeUpdated","inputs":[{"name":"newProtocolFeeBP","type":"uint8","indexed":false,"internalType":"uint8"}],"anonymous":false},{"type":"event","name":"SwapComplete","inputs":[{"name":"swapReservationIndex","type":"uint256","indexed":false,"internalType":"uint256"},{"name":"swapReservation","type":"tuple","indexed":false,"internalType":"struct RiftExchange.SwapReservation","components":[{"name":"owner","type":"address","internalType":"address"},{"name":"confirmationBlockHeight","type":"uint32","internalType":"uint32"},{"name":"reservationTimestamp","type":"uint64","internalType":"uint64"},{"name":"liquidityUnlockedTimestamp","type":"uint64","internalType":"uint64"},{"name":"state","type":"uint8","internalType":"enum RiftExchange.ReservationState"},{"name":"ethPayoutAddress","type":"address","internalType":"address"},{"name":"lpReservationHash","type":"bytes32","internalType":"bytes32"},{"name":"nonce","type":"bytes32","internalType":"bytes32"},{"name":"totalSatsInputIncludingProxyFee","type":"uint256","internalType":"uint256"},{"name":"totalSwapOutputAmount","type":"uint256","internalType":"uint256"},{"name":"proposedBlockHeight","type":"uint64","internalType":"uint64"},{"name":"proposedBlockHash","type":"bytes32","internalType":"bytes32"},{"name":"vaultIndexes","type":"uint256[]","internalType":"uint256[]"},{"name":"amountsToReserve","type":"uint192[]","internalType":"uint192[]"},{"name":"expectedSatsOutput","type":"uint64[]","internalType":"uint64[]"}]},{"name":"protocolFee","type":"uint256","indexed":false,"internalType":"uint256"}],"anonymous":false},{"type":"event","name":"Upgraded","inputs":[{"name":"implementation","type":"address","indexed":true,"internalType":"address"}],"anonymous":false},{"type":"error","name":"AddressEmptyCode","inputs":[{"name":"target","type":"address","internalType":"address"}]},{"type":"error","name":"AmountToReserveTooLow","inputs":[{"name":"index","type":"uint256","internalType":"uint256"}]},{"type":"error","name":"BlockArraysMismatch","inputs":[]},{"type":"error","name":"BlockDoesNotExist","inputs":[]},{"type":"error","name":"ERC1967InvalidImplementation","inputs":[{"name":"implementation","type":"address","internalType":"address"}]},{"type":"error","name":"ERC1967NonPayable","inputs":[]},{"type":"error","name":"FailedInnerCall","inputs":[]},{"type":"error","name":"InvalidBlockHeights","inputs":[]},{"type":"error","name":"InvalidChainwork","inputs":[]},{"type":"error","name":"InvalidConfirmationBlock","inputs":[]},{"type":"error","name":"InvalidExchangeRate","inputs":[]},{"type":"error","name":"InvalidFeeRouterAddress","inputs":[]},{"type":"error","name":"InvalidInitialization","inputs":[]},{"type":"error","name":"InvalidInputArrays","inputs":[]},{"type":"error","name":"InvalidReservationState","inputs":[]},{"type":"error","name":"InvalidSafeBlock","inputs":[]},{"type":"error","name":"NewDepositsPaused","inputs":[]},{"type":"error","name":"NotApprovedHypernode","inputs":[]},{"type":"error","name":"NotEnoughLiquidity","inputs":[]},{"type":"error","name":"NotInitializing","inputs":[]},{"type":"error","name":"NotVaultOwner","inputs":[]},{"type":"error","name":"OverwrittenProposedBlock","inputs":[]},{"type":"error","name":"OwnableInvalidOwner","inputs":[{"name":"owner","type":"address","internalType":"address"}]},{"type":"error","name":"OwnableUnauthorizedAccount","inputs":[{"name":"account","type":"address","internalType":"address"}]},{"type":"error","name":"ReservationNotExpired","inputs":[]},{"type":"error","name":"ReservationNotProved","inputs":[]},{"type":"error","name":"StillInChallengePeriod","inputs":[]},{"type":"error","name":"TransferFailed","inputs":[]},{"type":"error","name":"UUPSUnauthorizedCallContext","inputs":[]},{"type":"error","name":"UUPSUnsupportedProxiableUUID","inputs":[{"name":"slot","type":"bytes32","internalType":"bytes32"}]},{"type":"error","name":"UpdateExchangeRateError","inputs":[]},{"type":"error","name":"WithdrawalAmountError","inputs":[]}],"bytecode":{"object":"0x60a06040523461003c57610011610040565b3060805261001d610040565b6040516138b390816100d782396080518181816124a201526126fc0152f35b5f80fd5b5f51602061398a5f395f51905f525460ff8160401c166100c7576002600160401b03196001600160401b038216016100755750565b6001600160401b0319166001600160401b039081175f51602061398a5f395f51905f52556040519081527fc7f505b2f371ae2175ee4913f4499e1f2633a7b5936321eed1cdaeb6115181d290602090a1565b63f92ee8a960e01b5f5260045ffdfe60806040526004361015610011575f80fd5b5f5f3560e01c8063074e755114612b0757806308524ea214612ae65780630a7aa29314612a73578063163de0c514612a56578063276d080e1461295257806335106fab146129365780633b97e856146129135780633d7b22b3146128f65780634a8484ea146128b55780634f1ef286146126bf578063505675dd146124f657806352d1902d146124905780635f4d0610146123fa5780636512d057146123cf5780636b994abb146122f4578063715018a61461228d57806373e149e6146122415780637789190714611f575780637a9059a214611f125780637dce555014611ef5578063803d5f6214611cf55780638cc63cdd14611a4a5780638da5cb5b14611cc157806398f9e75714611c40578063a3db99d914611ab6578063ad3cb1cc14611a6f578063b01c27d114611a4a578063b9b2a98214611a1e578063bff20f7814611698578063c5fba0b814611675578063c7785af01461152e578063c89039c514611506578063cda7d82c146114dc578063cf695688146114b4578063d57763c314611198578063d825a6921461115b578063d84184031461096e578063e0dc970e1461092b578063e102f9c114610717578063e5791596146106fa578063e904e09d146106dc578063ea6fe03e146106be578063ecdea06f14610348578063ed8b2b3214610311578063ee82ac5e146102e8578063f2fde38b146102bb578063f3f480d91461029e578063f51e181a1461027b5763f53e31cf14610235575f80fd5b346102785760203660031901126102785761024e612e31565b610256613392565b6001600160a01b03168152600a60205260408120805460ff1916600117905580f35b80fd5b50346102785780600319360112610278576020604051670de0b6b3a76400008152f35b5034610278578060031936011261027857602060405161012c8152f35b5034610278576020366003190112610278576102e56102d8612e31565b6102e0613392565b613321565b80f35b503461027857602036600319011261027857604060209160043581528083522054604051908152f35b5034610278576020366003190112610278576004358152806020526040812054156103395780f35b63fa4a5e4560e01b8152600490fd5b50346102785761012036600319011261027857600435610366612b9d565b61036e612bdc565b610376612bf2565b9160c4356001600160401b0381116106ba57610396903690600401612cae565b9160e4356001600160401b0381116106b6576103b6903690600401612cae565b93610104356001600160401b0381116106b2576103d7903690600401612e62565b90338852600a60205260ff604089205416156106a3576103f687612ed8565b5095600187019260ff845460401c16600581101561068f576001036106805761041d612f25565b50896104288a612ed8565b50600281015490600381015490600801546001600160401b03169863ffffffff16986107e08a06610459908b6132c7565b845283602052604084205461046e8b8b612f7f565b916104798b8a612f7f565b936040519561048787612c5a565b6024358752604435602088015260408701526060860152608085015260a08401528960c08401526001600160401b031660e08301526001600160401b03166101008201528861012082015283610140820152610160810160019052604051809160208201906104f591612d3e565b03601f19810182526105079082612c76565b600554600454906001600160a01b0316803b1561067c578392610551926105636040519788958694859463020a49e360e51b86526004860152606060248601526064850190612f01565b83810360031901604485015290612f01565b03915afa91821561066f578892610652575b50506001600160401b0361059493166001600160401b0386168761358d565b506802000000000000000060ff60401b1982541617815561012c6001600160401b034216016001600160401b03811161063e576106029360039695936001600160401b0393846105fb94168519825416179055600687018482168519825416179055612f7f565b169061330d565b516007820155015460405191825260208201527f8bcdab581a6176f792fa96b0c57d32273bcd8621b0548c15a9c6379dc246e26c60403392a280f35b634e487b7160e01b88526011600452602488fd5b8192509061065f91612c76565b61066b5785895f610575565b8880fd5b50604051903d90823e3d90fd5b8380fd5b639085371960e01b8a5260048afd5b634e487b7160e01b8b52602160045260248bfd5b63901924a360e01b8852600488fd5b8780fd5b8680fd5b8580fd5b50346102785780600319360112610278576020600854604051908152f35b50346102785780600319360112610278576020604051620186a08152f35b503461027857806003193601126102785760206040516138408152f35b50346109275760c036600319011261092757610731612b8a565b610739612bb0565b90610742612bc6565b916064356001600160401b03811161092757610762903690600401612cae565b906084356001600160401b03811161092757610782903690600401612cae565b9260a4356001600160401b0381116109275736602382011215610927578060040135906001600160401b038211610927573660248383010111610927576107e2906107f06107d388888b8989612f9f565b60405193849160208301612d3e565b03601f198101845283612c76565b60018060a01b036005541660045492813b156109275760205f9461083b9487602498604051998a988997889663020a49e360e51b885260048801526060838801526064870190612f01565b8581036003190160448701528281529301858401378181018401889052601f01601f1916010301915afa801561091c576108c6575b506040937f53c55b659e4c5f3763b9da2fa2532074637dafa5dc828490a8cfd9154a8afe9e95936001600160401b03938463ffffffff6108b795169616948591168661358d565b5082519182526020820152a180f35b6108b7919650937f53c55b659e4c5f3763b9da2fa2532074637dafa5dc828490a8cfd9154a8afe9e95936001600160401b03936109055f604098612c76565b8463ffffffff5f9a95505050935093955093610870565b6040513d5f823e3d90fd5b5f80fd5b3461092757602036600319011261092757610944612e31565b61094c613392565b600580546001600160a01b0319166001600160a01b0392909216919091179055005b346109275760c036600319011261092757610987612e31565b6024356001600160401b038111610927576109a6903690600401612cae565b604435906001600160401b03821161092757366023830112156109275781600401356109d181612c97565b926109df6040519485612c76565b8184526024602085019260051b8201019036821161092757602401915b81831061113b575050506064356001600160a01b03811693908490036109275760a4356001600160401b03811161092757610a3b903690600401612cae565b918051801590811561112f575b50611120575f5b8451811015610a8b576001600160c01b03610a6a828761330d565b511615610a7957600101610a4f565b633143436b60e11b5f5260045260245ffd5b50845f945f92805194610a9d86612c97565b95610aab6040519788612c76565b808752610aba601f1991612c97565b0136602088013760ff60035460a01c16935f985b84518a1015610b7a57610b166001600160401b036004610af7610af18e8961330d565b51612ea8565b50015416916001600160c01b03610b0e8d8961330d565b51169061312e565b99610b34876001600160c01b03610b2d848a61330d565b5116613548565b918015610b6657610b526001600160401b039160019404809a61312e565b9816610b5e828b61330d565b520198610ace565b634e487b7160e01b5f52601260045260245ffd5b9391908790610b888a6133da565b5f92835b8651851015610c53575f6020916001600160401b03610bab888861330d565b511690610bbb610af1898c61330d565b5060046001600160501b031991015460101b1690604051918583019384526040830152606082015260608152610bf2608082612c76565b604051918291518091835e8101838152039060025afa1561091c575f51936001600160c01b03610c22828861330d565b51166002610c33610af1848b61330d565b50015410610c445760010193610b8c565b634323a55560e01b5f5260045ffd5b86939450876008549160405160208101908682524260408201524660608201528260808201528460a082015260a08152610c8e60c082612c76565b5190209660405194610c9f86612c3e565b60018060a01b03169586865260208601945f865260408701906001600160401b034216825260608801935f855260808901936001855260a08a015260c0890195865260e08901968c88526084356101008b01526101208a01525f6101408a01525f6101608a01528a6101808a01528c6101a08a01526101c0890152600160401b8110156110b457806001610d369201600855612ed8565b96909661110d5787519051915160a09290921b63ffffffff60a01b166001600160a01b03919091161760c09190911b6001600160c01b031916178555905160018501805467ffffffffffffffff19166001600160401b0392909216919091178155905160058110156110f957815460a087015168010000000000000000600160e81b031990911660409290921b60ff60401b169190911760489190911b6901000000000000000000600160e81b03161790555160028301555160038201556101008201516004820155610120820151600582015561014082015160068201805467ffffffffffffffff19166001600160401b03928316179055610160830151600783015561018083015180519160088401919083116110b457600160401b83116110b457602090610e6c848454818655856132ea565b01905f5260205f205f5b8381106110e55750505050600981016101a0830151908151916001600160401b0383116110b457600160401b83116110b457602090610eba848454818655856132ea565b01905f5260205f205f5b8381106110c85750505050600a6101c091019101518051906001600160401b0382116110b457600160401b82116110b4576020908354838555808410611068575b5001915f5260205f208160021c915f5b83811061102357506003198116900380610fcb575b505050505f5b8251811015610f74576001906001600160c01b03610f4e828861330d565b5116610f6c6002610f62610af1858961330d565b50019182546132c7565b905501610f30565b506008545f1981019084908211610fb7577f5956135c9be999a50f7ff4ea49ddf1485bc321ab333dc7a0877633eeb47528939160409182519182526020820152a2005b634e487b7160e01b5f52601160045260245ffd5b925f935f5b818110610fe557505050015584808080610f2a565b90919460206110196001926001600160401b03895116908560031b6001600160401b03809160031b9316831b921b19161790565b9601929101610fd0565b5f5f5b6004811061103b575083820155600101610f15565b86519096916001916020916001600160401b0360068b901b81811b199092169216901b1792019601611026565b61109590855f52835f20600380870160021c820192601888831b168061109b575b500160021c01906132d4565b88610f05565b5f198501908154905f19908a03851b1c1690558d611089565b634e487b7160e01b5f52604160045260245ffd5b82516001600160c01b031681830155602090920191600101610ec4565b600190602084519401938184015501610e76565b634e487b7160e01b5f52602160045260245ffd5b634e487b7160e01b5f525f60045260245ffd5b63744bba7b60e01b5f5260045ffd5b90508451141586610a48565b82356001600160c01b0381168103610927578152602092830192016109fc565b34610927576020366003190112610927576001600160a01b0361117c612e31565b165f52600a602052602060ff60405f2054166040519015158152f35b346109275760203660031901126109275760606101c06040516111ba81612c3e565b5f81525f60208201525f60408201525f838201525f60808201525f60a08201525f60c08201525f60e08201525f6101008201525f6101208201525f6101408201525f61016082015282610180820152826101a0820152015261121d600435612ed8565b506040519061122b82612c3e565b805460018060a01b0381168352602083019263ffffffff8260a01c168452604081019160c01c825260018301549160608201916001600160401b038416835260ff8460401c16926080820160058510156110f9578695869582999895995260a0840190600160a01b600190039060481c168152600285015460c0850190815260038601549060e086019182526004870154926101008701938452600588015494610120880195865260068901546001600160401b031696610140890197885260078a0154986101608101998a52604051806008819d019061130b9161314e565b03611316908c612c76565b61018081019a8b5260405180809e60098291019061133391613185565b0361133d91612c76565b6101a081019c8d5260405180600a819e0190611358916131c5565b03611363908d612c76565b6101c081019b8c526040519e8f9e8f9260208452600160a01b6001900390511660208401525163ffffffff166040830152516001600160401b03169060600152516001600160401b031660808d01525160a08c016113c091612ef4565b516001600160a01b031660c08b01525160e08a0152516101008901525161012088015251610140870152516001600160401b031661016086015251610180850152516101e06101a085015261141a90610200850190612d0b565b915191601f19848203016101c085015282519081815260200192602001905f5b818110611492575050505190601f19838203016101e0840152602080835192838152019201905f5b818110611470575050500390f35b82516001600160401b0316845285945060209384019390920191600101611462565b82516001600160c01b031685528695506020948501949092019160010161143a565b34610927575f366003190112610927576005546040516001600160a01b039091168152602090f35b34610927576020366003190112610927576004355f526001602052602060405f2054604051908152f35b34610927575f366003190112610927576003546040516001600160a01b039091168152602090f35b346109275761012036600319011261092757611548612b9d565b611550612bdc565b611558612bf2565b60c4356001600160401b03811161092757611577903690600401612cae565b60e4356001600160401b03811161092757611596903690600401612cae565b90610104359283151580940361092757611671956001600160401b0380926115bc612f25565b506115c8600435612ed8565b509260028401549863ffffffff8460086003880154970154169216916115f26107e08406846132c7565b5f525f60205261161160405f20549261160b8582612f7f565b95612f7f565b956040519b61161f8d612c5a565b6024358d528c602060443591015260408d015260608c015260808b015260a08a015260c08901521660e08701521661010085015261012084015261014083015261016082015260405191829182612d3e565b0390f35b34610927575f36600319011261092757602060ff60055460a81c16604051908152f35b3461092757610140366003190112610927576004356084356001600160a01b038116908190036109275760a4356001600160a01b03811691908290036109275760c4356001600160a01b03811691908290036109275760e435926001600160a01b03841684036109275761012435936001600160401b038511610927573660238601121561092757846004013561172e81612c97565b9561173c6040519788612c76565b8187526024602088019260051b8201019036821161092757602401915b8183106119fe575050505f51602061385e5f395f51905f52549560ff8760401c1615966001600160401b038116801590816119f6575b60011490816119ec575b1590816119e3575b506119d45767ffffffffffffffff1981166001175f51602061385e5f395f51905f5255611821926117eb91896119a8575b506117db613794565b6117e3613794565b6102e0613794565b6117f3613794565b80600255805f52600160205260643560405f2055805f525f60205260243560405f20556107e08106906132c7565b5f525f60205260443560405f205560035490806bffffffffffffffffffffffff60a01b83161760035560405163313ce56760e01b8152602081600481855afa90811561091c575f9161196c575b506001600160a81b03199092161760a09190911b60ff60a01b16176003556101043560045560055491801561195d57600680546001600160a01b0319169190911790556001600160b01b031990911617600560a91b176005555f5b8151811015611904576001906001600160a01b036118e7828561330d565b51165f52600a60205260405f208260ff19825416179055016118c9565b8261190b57005b60ff60401b195f51602061385e5f395f51905f5254165f51602061385e5f395f51905f52557fc7f505b2f371ae2175ee4913f4499e1f2633a7b5936321eed1cdaeb6115181d2602060405160018152a1005b631abb799360e31b5f5260045ffd5b90506020813d6020116119a0575b8161198760209383612c76565b81010312610927575160ff81168103610927578761186e565b3d915061197a565b68ffffffffffffffffff191668010000000000000001175f51602061385e5f395f51905f5255896117d2565b63f92ee8a960e01b5f5260045ffd5b905015896117a1565b303b159150611799565b89915061178f565b82356001600160a01b038116810361092757815260209283019201611759565b34610927576020366003190112610927576020611a426004356107e08106906132c7565b604051908152f35b34610927575f36600319011261092757602060ff60055460a01c166040519015158152f35b34610927575f36600319011261092757611671604051611a90604082612c76565b60058152640352e302e360dc1b6020820152604051918291602083526020830190612f01565b34610927576060366003190112610927576004356024356001600160c01b03811690819003610927576044356001600160401b03811161092757611afe903690600401612cae565b611b0783612ea8565b50546001600160a01b03163303611c3157611b21906133da565b611b2a82612ea8565b509080158015611c24575b611c15575f927f2da2870bb581d5fba8ee536c6bc0062e654302bcee5f5b108193a2c6d2f4a899604084600360026020970191611b738784546132c7565b80935501611b8286825461312e565b905581519085825286820152a260035460405163a9059cbb60e01b815233600482015260248101929092529092839160449183916001600160a01b03165af190811561091c575f91611be6575b5015611bd757005b6312171d8360e31b5f5260045ffd5b611c08915060203d602011611c0e575b611c008183612c76565b8101906132af565b81611bcf565b503d611bf6565b63b4e3d41360e01b5f5260045ffd5b5060028201548111611b35565b630e7fea9d60e01b5f5260045ffd5b3461092757602036600319011261092757611c59612e31565b6060604051611c6781612c23565b5260018060a01b03165f52600960205261167160405f20611c9d611ca460405192611c9184612c23565b6040519283809261314e565b0382612c76565b815260405191829160208352516020808401526040830190612d0b565b34610927575f366003190112610927575f51602061381e5f395f51905f52546040516001600160a01b039091168152602090f35b3461092757606036600319011261092757600435611d11612bb0565b604435906001600160501b031982168092036109275760ff60055460a01c16611ee6576001600160401b0316908115611ed757335f52600960205260405f205415611e4a575b604051611d9b91611d6782612c08565b3382526001600160401b03421660208301528460408301528460608301525f60808301528360a083015260c0820152613040565b6007545f198101908111610fb757611db390336134fe565b6007545f19810192908311610fb7575f92602092604051918252828483015260408201527ffd5ab8914e1dca355d18ae7fe50627d3afe042f323e1b0ae31f3a9d2cd19de3760603392a26003546040516323b872dd60e01b815233600482015230602482015260448101929092529092839160649183916001600160a01b03165af190811561091c575f91611be6575015611bd757005b6020604051611e598282612c76565b5f81525f36813760405190611e6d82612c23565b8152335f526009825260405f209051918251926001600160401b0384116110b457600160401b84116110b4578190611eaa858554818755866132ea565b01915f52805f20905f5b848110611ec5575050505050611d57565b83518382015592810192600101611eb4565b63a2ec3a5560e01b5f5260045ffd5b6348010c6560e11b5f5260045ffd5b34610927575f366003190112610927576020600754604051908152f35b346109275760203660031901126109275760043580151580910361092757611f38613392565b6005805460ff60a01b191660a09290921b60ff60a01b16919091179055005b3461092757602036600319011261092757600435611f7481612ed8565b506001810191825460ff8160401c1660058110156110f957600203612232576001600160401b031642106122235760068201906001600160401b038254165f525f60205260405f20546007840190815403612214576803000000000000000060ff60401b198654161785556005840191825491612710611ffc60ff60055460a81c168561313b565b0494620186a08610612209575b9561211c916001600160401b037f2f5e870e987f384af7aa5a516b551286762ae20f2fbbf3b8df2bcb1a73511198969798604051968796875260606020880152845460018060a01b038116606089015263ffffffff8160a01c16608089015260c01c60a08801528b5483811660c089015261208d60e0890160ff8360401c16612ef4565b60481c6001600160a01b031661010088015260028501546101208801526003850154610140880152600485015461016088015261018087015254166101a0850152546101c08401526101e080840152600a6121086120f261024086016008850161314e565b858103605f190161020087015260098401613185565b848103605f190161022086015291016131c5565b8560408301520390a160035460065460405163a9059cbb60e01b81526001600160a01b0391821660048201526024810185905291602091839160449183915f91165af190811561091c575f916121ea575b5015611bd7576121d19261219d60209360018060a01b03600354169260018060a01b03905460481c1693546132c7565b60405163a9059cbb60e01b81526001600160a01b0390931660048401526024830152909283919082905f9082906044820190565b03925af190811561091c575f91611be6575015611bd757005b612203915060203d602011611c0e57611c008183612c76565b8461216d565b620186a09550612009565b63c1f6fa5160e01b5f5260045ffd5b632d5c37f560e21b5f5260045ffd5b6320d55f6760e21b5f5260045ffd5b346109275760203660031901126109275761225a612e31565b612262613392565b6001600160a01b0316801561195d576bffffffffffffffffffffffff60a01b60065416176006555f80f35b34610927575f366003190112610927576122a5613392565b5f51602061381e5f395f51905f5280546001600160a01b031981169091555f906001600160a01b03167f8be0079c531659141344cd1fd0a4f28419497f9722a3daafe3b4186f6b6457e08280a3005b34610927576020366003190112610927576004356008548110156109275761231e61018091612ed8565b508054906001810154906002810154600382015460048301549060058401549260076001600160401b03600687015416950154956040519760018060a01b038116895263ffffffff8160a01c1660208a015260c01c60408901526001600160401b038116606089015261239a6080890160ff8360401c16612ef4565b60481c6001600160a01b031660a088015260c087015260e0860152610100850152610120840152610140830152610160820152f35b3461092757602036600319011261092757602060026123ef600435612ea8565b500154604051908152f35b34610927576020366003190112610927576004356007548110156109275761242360e091612ea8565b50805490600181015490600281015460046003830154920154926001600160401b036040519560018060a01b038116875260a01c1660208601526040850152606084015260808301526001600160401b03811660a08301526001600160501b03199060101b1660c0820152f35b34610927575f366003190112610927577f00000000000000000000000000000000000000000000000000000000000000006001600160a01b031630036124e75760206040515f51602061383e5f395f51905f528152f35b63703e46dd60e11b5f5260045ffd5b3461092757606036600319011261092757600435612512612bb0565b906044356001600160401b03811161092757612532903690600401612cae565b61253b82612ea8565b50546001600160a01b03163303611c31576001600160401b038316928315611ed75761256683612ea8565b50600281016125768154946133da565b600182015484036125e357509360047fbe7a3aef8ec470b9ef629744038f55b7557d10cd672e7a5982f0433e50866ae7949501906001600160401b03198254161790556125de60405192839283602090939291936001600160401b0360408201951681520152565b0390a2005b9350826125f957632b5daf8960e01b5f5260045ffd5b7fbe7a3aef8ec470b9ef629744038f55b7557d10cd672e7a5982f0433e50866ae79360035f926126836007549860018060a01b03835416906001600160501b0319600485015460101b16906040519261265184612c08565b83526001600160401b034216602084015289604084015289606084015287608084015260a083015260c0820152613040565b0161268f85825461312e565b90555561269c84336134fe565b604080516001600160401b039092168252602082019290925290819081016125de565b6040366003190112610927576126d3612e31565b6024356001600160401b038111610927576126f2903690600401612e62565b6001600160a01b037f000000000000000000000000000000000000000000000000000000000000000016308114908115612893575b506124e757612734613392565b6040516352d1902d60e01b81526001600160a01b0383169290602081600481875afa5f918161285f575b506127765783634c9c8ce360e01b5f5260045260245ffd5b805f51602061383e5f395f51905f5285920361284d5750813b1561283b575f51602061383e5f395f51905f5280546001600160a01b031916821790557fbc7cd75a20ee27fd9adebab32041f755214dbc6bffa90cc0225b39da2e5c2d3b5f80a2815115612823575f8083602061281995519101845af43d1561281b573d916127fd83612e47565b9261280b6040519485612c76565b83523d5f602085013e6137bf565b005b6060916137bf565b50503461282c57005b63b398979f60e01b5f5260045ffd5b634c9c8ce360e01b5f5260045260245ffd5b632a87526960e21b5f5260045260245ffd5b9091506020813d60201161288b575b8161287b60209383612c76565b810103126109275751908561275e565b3d915061286e565b5f51602061383e5f395f51905f52546001600160a01b03161415905083612727565b34610927576020366003190112610927576128ce612e31565b6128d6613392565b6001600160a01b03165f908152600a60205260409020805460ff19169055005b34610927575f366003190112610927576020600454604051908152f35b34610927575f36600319011261092757602060ff60035460a01c16604051908152f35b34610927575f3660031901126109275760206040516127108152f35b34610927576020366003190112610927575f60c060405161297281612c08565b8281528260208201528260408201528260608201528260808201528260a0820152015260e06129a2600435612ea8565b506040516129af81612c08565b6001600160401b0382549160018060a01b0383169384825282602083019460a01c168452600181015460408301908152600282015490606084019182528460046003850154946080870195865201549660c060a0870196838a16885201976001600160501b03199060101b16885260405198895251166020880152516040870152516060860152516080850152511660a08301526001600160501b031990511660c0820152f35b34610927575f366003190112610927576020600254604051908152f35b346109275760203660031901126109275760043560ff811690818103610927577f24a03cde3fd8f5ba3248b379245656e42120de635bd292a7185d3d688d95ef2991602091612ac0613392565b6005805460ff60a81b191660a89290921b60ff60a81b16919091179055604051908152a1005b3461092757602036600319011261092757612aff613392565b600480359055005b346109275760a036600319011261092757612b20612b8a565b612b28612bb0565b90612b31612bc6565b906064356001600160401b03811161092757612b51903690600401612cae565b608435926001600160401b0384116109275761167194612b78612b7e953690600401612cae565b93612f9f565b60405191829182612d3e565b6004359063ffffffff8216820361092757565b6064359063ffffffff8216820361092757565b602435906001600160401b038216820361092757565b604435906001600160401b038216820361092757565b608435906001600160401b038216820361092757565b60a435906001600160401b038216820361092757565b60e081019081106001600160401b038211176110b457604052565b602081019081106001600160401b038211176110b457604052565b6101e081019081106001600160401b038211176110b457604052565b61018081019081106001600160401b038211176110b457604052565b90601f801991011681019081106001600160401b038211176110b457604052565b6001600160401b0381116110b45760051b60200190565b9080601f83011215610927578135612cc581612c97565b92612cd36040519485612c76565b81845260208085019260051b82010192831161092757602001905b828210612cfb5750505090565b8135815260209182019101612cee565b90602080835192838152019201905f5b818110612d285750505090565b8251845260209384019390920191600101612d1b565b602081526101a08101825160208301526020830151604083015260408301516060830152606083015160808301526001600160401b0360808401511660a083015260a083015160c08301526001600160401b0360c08401511660e08301526001600160401b0360e0840151166101008301526001600160401b036101008401511661012083015261012083015190610180610140840152815180915260206101c084019201905f5b818110612e1b57505050610160612e1061018092610140860151601f198683030184870152612d0b565b930151151591015290565b8251845260209384019390920191600101612de6565b600435906001600160a01b038216820361092757565b6001600160401b0381116110b457601f01601f191660200190565b81601f8201121561092757803590612e7982612e47565b92612e876040519485612c76565b8284526020838301011161092757815f926020809301838601378301015290565b600754811015612ec45760075f52600560205f20910201905f90565b634e487b7160e01b5f52603260045260245ffd5b600854811015612ec45760085f52600b60205f20910201905f90565b9060058210156110f95752565b805180835260209291819084018484015e5f828201840152601f01601f1916010190565b60405190612f3282612c5a565b5f610160838281528260208201528260408201528260608201528260808201528260a08201528260c08201528260e082015282610100820152606061012082015260606101408201520152565b906001600160401b03809116911603906001600160401b038211610fb757565b916001600160401b0363ffffffff8193969594612fba612f25565b501691612fcb6107e08406846132c7565b5f525f602052612fea60405f205497612fe48582612f7f565b92612f7f565b9260405197612ff889612c5a565b5f89525f60208a01525f60408a01525f60608a01525f60808a015260a089015260c08801521660e0860152166101008401526101208301526101408201525f61016082015290565b600754600160401b8110156110b45760018101600755600754811015612ec45760075f526005027fa66cc928b5edb82af9bd49922954155ab7b0942694bea4ce44661d9a8736c688018151815460208401516001600160e01b03199091166001600160a01b03929092169190911760a091821b67ffffffffffffffff60a01b16178255604083015160018301556060830151600283015560808301516003830155820151600491909101805460c093909301516001600160f01b03199093166001600160401b03929092169190911760109290921c68010000000000000000600160f01b0316919091179055565b91908201809211610fb757565b81810292918115918404141715610fb757565b90602082549182815201915f5260205f20905f5b81811061316f5750505090565b8254845260209093019260019283019201613162565b90602082549182815201915f5260205f20905f5b8181106131a65750505090565b82546001600160c01b0316845260209093019260019283019201613199565b80548083525f91825260208083209301925b816003840110613263575491818110613249575b81811061322c575b81811061320f575b10613204575090565b60c01c815260200190565b9260206001916001600160401b038560801c1681520193016131fb565b9260206001916001600160401b038560401c1681520193016131f3565b9260206001916001600160401b03851681520193016131eb565b926001608060049286546001600160401b03811682526001600160401b038160401c1660208301526001600160401b0381841c16604083015260c01c60608201520194019201916131d7565b90816020910312610927575180151581036109275790565b91908203918211610fb757565b8181106132df575050565b5f81556001016132d4565b918181106132f757505050565b61330b925f5260205f2091820191016132d4565b565b8051821015612ec45760209160051b010190565b6001600160a01b0316801561337f575f51602061381e5f395f51905f5280546001600160a01b0319811683179091556001600160a01b03167f8be0079c531659141344cd1fd0a4f28419497f9722a3daafe3b4186f6b6457e05f80a3565b631e4fbdf760e01b5f525f60045260245ffd5b5f51602061381e5f395f51905f52546001600160a01b031633036133b257565b63118cdaa760e01b5f523360045260245ffd5b8054821015612ec4575f5260205f2001905f90565b5f5b815181101561344e576133f86133f2828461330d565b51612ed8565b5061384061340a825460c01c426132c7565b1090811561342f575b50613420576001016133dc565b6326349d6b60e01b5f5260045ffd5b60ff91506001015460401c1660058110156110f957600114155f613413565b505f915b81518310156134f957916134696133f2828461330d565b5091600983019160088401915f5b83548110156134cc578061349c613490600193876133c5565b90549060031b1c612ea8565b506134c460026134ac848a6133c5565b868060c01b0391549060031b1c16920191825461312e565b905501613477565b506001948501805468ff000000000000000019166804000000000000000017905593019391506134529050565b915050565b6001600160a01b03165f9081526009602052604090208054600160401b8110156110b457613531916001820181556133c5565b819291549060031b91821b915f19901b1916179055565b9060ff1660128110613558575090565b60120360ff8111610fb75760ff1690604d8211610fb75761357c91600a0a9061313b565b90565b5f198114610fb75760010190565b9360025491825f52600160205260405f20549080871080159061378a575b61377b57865f525f60205260405f20541561376c578551835181149081159161374c575b5061373d5760016135e082876132c7565b1061372e5785515f19810191908211610fb7576135fd88826132c7565b905f525f60205261361360405f2054918861330d565b511461372357613623908361330d565b511161363857631f17929160e21b5f5260045ffd5b60018501808611610fb7575b838111156136d4575050808210613691575b50916040917fb68477c768bbb33b4f238a3dfd17c33c499268c59cd042b7936bbc23dc2bdd34936002555182519182526020820152a1600190565b60018201808311610fb7575b818111156136ab5750613656565b806136cf915f525f6020525f6040812055805f5260016020525f604081205561357f565b61369d565b806136eb6136e58861371e946132c7565b8761330d565b51815f525f60205260405f205561370b61370588836132c7565b8461330d565b51815f52600160205260405f205561357f565b613644565b505050505050505f90565b6341305f6360e01b5f5260045ffd5b63d4d34e9960e01b5f5260045ffd5b905061375888876132c7565b9060018201809211610fb75714155f6135cf565b63575f3da360e01b5f5260045ffd5b63f198a75d60e01b5f5260045ffd5b50848110156135ab565b60ff5f51602061385e5f395f51905f525460401c16156137b057565b631afcd79f60e31b5f5260045ffd5b906137e357508051156137d457805190602001fd5b630a12f52160e11b5f5260045ffd5b81511580613814575b6137f4575090565b639996b31560e01b5f9081526001600160a01b0391909116600452602490fd5b50803b156137ec56fe9016d09d72d40fdae2fd8ceac6b6234c7706214fd39c1cd1e609a0528c199300360894a13ba1a3210667c828492db98dca3e2076cc3735a920a3ca505d382bbcf0c57e16840df040f15088dc2f81fe391c3923bec73e23a9662efc9c229c6a00a264697066735822122034f792f3bbe6067124c08099b190d35dfebbbdf66d9ed0b3143adf66649d904564736f6c634300081b0033f0c57e16840df040f15088dc2f81fe391c3923bec73e23a9662efc9c229c6a00","linkReferences":{}},"methodIdentifiers":{"UPGRADE_INTERFACE_VERSION()":"ad3cb1cc","addPermissionedHypernode(address)":"f53e31cf","bpScale()":"35106fab","buildBlockProofPublicInputs(uint32,uint64,uint64,bytes32[],uint256[])":"074e7551","buildPublicInputs(uint256,bytes32,bytes32,uint32,uint64,uint64,bytes32[],uint256[],bool)":"c7785af0","calculateRetargetHeight(uint256)":"b9b2a982","challengePeriod()":"f3f480d9","circuitVerificationKey()":"3d7b22b3","currentHeight()":"163de0c5","depositLiquidity(uint256,uint64,bytes22)":"803d5f62","depositToken()":"c89039c5","depositVaults(uint256)":"5f4d0610","getAreDepositsPaused()":"b01c27d1","getBlockHash(uint256)":"ee82ac5e","getChainwork(uint256)":"cda7d82c","getDepositVault(uint256)":"276d080e","getDepositVaultUnreservedBalance(uint256)":"6512d057","getDepositVaultsLength()":"7dce5550","getLiquidityProvider(address)":"98f9e757","getReservation(uint256)":"d57763c3","getReservationLength()":"ea6fe03e","initialize(uint256,bytes32,bytes32,uint256,address,address,address,address,bytes32,address[])":"bff20f78","isDepositNewLiquidityPaused()":"8cc63cdd","minProtocolFee()":"e904e09d","owner()":"8da5cb5b","permissionedHypernodes(address)":"d825a692","protocolFeeBP()":"c5fba0b8","proveBlocks(uint32,uint64,uint64,bytes32[],uint256[],bytes)":"e102f9c1","proxiableUUID()":"52d1902d","releaseLiquidity(uint256)":"77891907","removePermissionedHypernode(address)":"4a8484ea","renounceOwnership()":"715018a6","reservationLockupPeriod()":"e5791596","reserveLiquidity(address,uint256[],uint192[],address,uint256,uint256[])":"d8418403","scale()":"f51e181a","submitSwapProof(uint256,bytes32,bytes32,uint32,uint64,uint64,bytes32[],uint256[],bytes)":"ecdea06f","swapReservations(uint256)":"6b994abb","tokenDecimals()":"3b97e856","transferOwnership(address)":"f2fde38b","updateCircuitVerificationKey(bytes32)":"08524ea2","updateExchangeRate(uint256,uint64,uint256[])":"505675dd","updateFeeRouter(address)":"73e149e6","updateNewLiquidityDepositsPaused(bool)":"7a9059a2","updateProtocolFee(uint8)":"0a7aa293","updateVerifierContract(address)":"e0dc970e","upgradeToAndCall(address,bytes)":"4f1ef286","validateBlockExists(uint256)":"ed8b2b32","verifierContract()":"cf695688","withdrawLiquidity(uint256,uint192,uint256[])":"a3db99d9"},"storageLayout":{"storage":[{"astId":50920,"contract":"src/RiftExchange.sol:RiftExchange","label":"blockchain","offset":0,"slot":"0","type":"t_mapping(t_uint256,t_bytes32)"},{"astId":50924,"contract":"src/RiftExchange.sol:RiftExchange","label":"chainworks","offset":0,"slot":"1","type":"t_mapping(t_uint256,t_uint256)"},{"astId":50926,"contract":"src/RiftExchange.sol:RiftExchange","label":"currentHeight","offset":0,"slot":"2","type":"t_uint256"},{"astId":51450,"contract":"src/RiftExchange.sol:RiftExchange","label":"depositToken","offset":0,"slot":"3","type":"t_contract(IERC20)51338"},{"astId":51452,"contract":"src/RiftExchange.sol:RiftExchange","label":"tokenDecimals","offset":20,"slot":"3","type":"t_uint8"},{"astId":51454,"contract":"src/RiftExchange.sol:RiftExchange","label":"circuitVerificationKey","offset":0,"slot":"4","type":"t_bytes32"},{"astId":51457,"contract":"src/RiftExchange.sol:RiftExchange","label":"verifierContract","offset":0,"slot":"5","type":"t_contract(ISP1Verifier)50175"},{"astId":51459,"contract":"src/RiftExchange.sol:RiftExchange","label":"isDepositNewLiquidityPaused","offset":20,"slot":"5","type":"t_bool"},{"astId":51461,"contract":"src/RiftExchange.sol:RiftExchange","label":"protocolFeeBP","offset":21,"slot":"5","type":"t_uint8"},{"astId":51463,"contract":"src/RiftExchange.sol:RiftExchange","label":"feeRouterAddress","offset":0,"slot":"6","type":"t_address"},{"astId":51467,"contract":"src/RiftExchange.sol:RiftExchange","label":"depositVaults","offset":0,"slot":"7","type":"t_array(t_struct(DepositVault)51405_storage)dyn_storage"},{"astId":51471,"contract":"src/RiftExchange.sol:RiftExchange","label":"swapReservations","offset":0,"slot":"8","type":"t_array(t_struct(SwapReservation)51386_storage)dyn_storage"},{"astId":51476,"contract":"src/RiftExchange.sol:RiftExchange","label":"liquidityProviders","offset":0,"slot":"9","type":"t_mapping(t_address,t_struct(LiquidityProvider)51390_storage)"},{"astId":51480,"contract":"src/RiftExchange.sol:RiftExchange","label":"permissionedHypernodes","offset":0,"slot":"10","type":"t_mapping(t_address,t_bool)"}],"types":{"t_address":{"encoding":"inplace","label":"address","numberOfBytes":"20"},"t_array(t_struct(DepositVault)51405_storage)dyn_storage":{"encoding":"dynamic_array","label":"struct RiftExchange.DepositVault[]","numberOfBytes":"32","base":"t_struct(DepositVault)51405_storage"},"t_array(t_struct(SwapReservation)51386_storage)dyn_storage":{"encoding":"dynamic_array","label":"struct RiftExchange.SwapReservation[]","numberOfBytes":"32","base":"t_struct(SwapReservation)51386_storage"},"t_array(t_uint192)dyn_storage":{"encoding":"dynamic_array","label":"uint192[]","numberOfBytes":"32","base":"t_uint192"},"t_array(t_uint256)dyn_storage":{"encoding":"dynamic_array","label":"uint256[]","numberOfBytes":"32","base":"t_uint256"},"t_array(t_uint64)dyn_storage":{"encoding":"dynamic_array","label":"uint64[]","numberOfBytes":"32","base":"t_uint64"},"t_bool":{"encoding":"inplace","label":"bool","numberOfBytes":"1"},"t_bytes22":{"encoding":"inplace","label":"bytes22","numberOfBytes":"22"},"t_bytes32":{"encoding":"inplace","label":"bytes32","numberOfBytes":"32"},"t_contract(IERC20)51338":{"encoding":"inplace","label":"contract IERC20","numberOfBytes":"20"},"t_contract(ISP1Verifier)50175":{"encoding":"inplace","label":"contract ISP1Verifier","numberOfBytes":"20"},"t_enum(ReservationState)51351":{"encoding":"inplace","label":"enum RiftExchange.ReservationState","numberOfBytes":"1"},"t_mapping(t_address,t_bool)":{"encoding":"mapping","key":"t_address","label":"mapping(address => bool)","numberOfBytes":"32","value":"t_bool"},"t_mapping(t_address,t_struct(LiquidityProvider)51390_storage)":{"encoding":"mapping","key":"t_address","label":"mapping(address => struct RiftExchange.LiquidityProvider)","numberOfBytes":"32","value":"t_struct(LiquidityProvider)51390_storage"},"t_mapping(t_uint256,t_bytes32)":{"encoding":"mapping","key":"t_uint256","label":"mapping(uint256 => bytes32)","numberOfBytes":"32","value":"t_bytes32"},"t_mapping(t_uint256,t_uint256)":{"encoding":"mapping","key":"t_uint256","label":"mapping(uint256 => uint256)","numberOfBytes":"32","value":"t_uint256"},"t_struct(DepositVault)51405_storage":{"encoding":"inplace","label":"struct RiftExchange.DepositVault","numberOfBytes":"160","members":[{"astId":51392,"contract":"src/RiftExchange.sol:RiftExchange","label":"owner","offset":0,"slot":"0","type":"t_address"},{"astId":51394,"contract":"src/RiftExchange.sol:RiftExchange","label":"depositTimestamp","offset":20,"slot":"0","type":"t_uint64"},{"astId":51396,"contract":"src/RiftExchange.sol:RiftExchange","label":"initialBalance","offset":0,"slot":"1","type":"t_uint256"},{"astId":51398,"contract":"src/RiftExchange.sol:RiftExchange","label":"unreservedBalance","offset":0,"slot":"2","type":"t_uint256"},{"astId":51400,"contract":"src/RiftExchange.sol:RiftExchange","label":"withdrawnAmount","offset":0,"slot":"3","type":"t_uint256"},{"astId":51402,"contract":"src/RiftExchange.sol:RiftExchange","label":"exchangeRate","offset":0,"slot":"4","type":"t_uint64"},{"astId":51404,"contract":"src/RiftExchange.sol:RiftExchange","label":"btcPayoutLockingScript","offset":8,"slot":"4","type":"t_bytes22"}]},"t_struct(LiquidityProvider)51390_storage":{"encoding":"inplace","label":"struct RiftExchange.LiquidityProvider","numberOfBytes":"32","members":[{"astId":51389,"contract":"src/RiftExchange.sol:RiftExchange","label":"depositVaultIndexes","offset":0,"slot":"0","type":"t_array(t_uint256)dyn_storage"}]},"t_struct(SwapReservation)51386_storage":{"encoding":"inplace","label":"struct RiftExchange.SwapReservation","numberOfBytes":"352","members":[{"astId":51353,"contract":"src/RiftExchange.sol:RiftExchange","label":"owner","offset":0,"slot":"0","type":"t_address"},{"astId":51355,"contract":"src/RiftExchange.sol:RiftExchange","label":"confirmationBlockHeight","offset":20,"slot":"0","type":"t_uint32"},{"astId":51357,"contract":"src/RiftExchange.sol:RiftExchange","label":"reservationTimestamp","offset":24,"slot":"0","type":"t_uint64"},{"astId":51359,"contract":"src/RiftExchange.sol:RiftExchange","label":"liquidityUnlockedTimestamp","offset":0,"slot":"1","type":"t_uint64"},{"astId":51362,"contract":"src/RiftExchange.sol:RiftExchange","label":"state","offset":8,"slot":"1","type":"t_enum(ReservationState)51351"},{"astId":51364,"contract":"src/RiftExchange.sol:RiftExchange","label":"ethPayoutAddress","offset":9,"slot":"1","type":"t_address"},{"astId":51366,"contract":"src/RiftExchange.sol:RiftExchange","label":"lpReservationHash","offset":0,"slot":"2","type":"t_bytes32"},{"astId":51368,"contract":"src/RiftExchange.sol:RiftExchange","label":"nonce","offset":0,"slot":"3","type":"t_bytes32"},{"astId":51370,"contract":"src/RiftExchange.sol:RiftExchange","label":"totalSatsInputIncludingProxyFee","offset":0,"slot":"4","type":"t_uint256"},{"astId":51372,"contract":"src/RiftExchange.sol:RiftExchange","label":"totalSwapOutputAmount","offset":0,"slot":"5","type":"t_uint256"},{"astId":51374,"contract":"src/RiftExchange.sol:RiftExchange","label":"proposedBlockHeight","offset":0,"slot":"6","type":"t_uint64"},{"astId":51376,"contract":"src/RiftExchange.sol:RiftExchange","label":"proposedBlockHash","offset":0,"slot":"7","type":"t_bytes32"},{"astId":51379,"contract":"src/RiftExchange.sol:RiftExchange","label":"vaultIndexes","offset":0,"slot":"8","type":"t_array(t_uint256)dyn_storage"},{"astId":51382,"contract":"src/RiftExchange.sol:RiftExchange","label":"amountsToReserve","offset":0,"slot":"9","type":"t_array(t_uint192)dyn_storage"},{"astId":51385,"contract":"src/RiftExchange.sol:RiftExchange","label":"expectedSatsOutput","offset":0,"slot":"10","type":"t_array(t_uint64)dyn_storage"}]},"t_uint192":{"encoding":"inplace","label":"uint192","numberOfBytes":"24"},"t_uint256":{"encoding":"inplace","label":"uint256","numberOfBytes":"32"},"t_uint32":{"encoding":"inplace","label":"uint32","numberOfBytes":"4"},"t_uint64":{"encoding":"inplace","label":"uint64","numberOfBytes":"8"},"t_uint8":{"encoding":"inplace","label":"uint8","numberOfBytes":"1"}}},"id":63}